:020000040804EE
:1000000000000824F12B08083D2C080841AF070820
:1000100047AF07084DAF070853AF070800000000BF
:10002000000000000000000000000000B1560708BA
:100030003D2C0808000000004B5707085B570708D5
:100040003D2C08083D2C08083D2C08083D2C0808CC
:100050003D2C08083D2C08083D2C08083D2C0808BC
:100060003D2C08083D2C08083D2C08083D2C0808AC
:100070003D2C08083D2C08083D2C08083D2C08089C
:100080003D2C08083D2C08083D2C08088537080839
:100090009537080891370808A13708083D2C08084B
:1000A0003D2C08083D2C08083D2C08083D2C08086C
:1000B0003D2C08083D2C08083D2C08083D2C08085C
:1000C0003D2C08083D2C08083D2C08083D2C08084C
:1000D0003D2C08083D2C08083D2C08083D2C08083C
:1000E0003D2C08083D2C0808000000003D2C0808A5
:1000F0003D2C08083D2C08083D2C08083D2C08081C
:100100003D2C0808B12808083D2C08083D2C08089B
:100110003D2C08083D2C08083D2C08083D2C0808FB
:100120003D2C08083D2C08083D2C08083D2C0808EB
:100130003D2C08083D2C08083D2C08083D2C0808DB
:100140003D2C08083D2C08080000000000000000BD
:100150003D2C08083D2C08083D2C08083D2C0808BB
:100160003D2C08083D2C08083D2C08083D2C0808AB
:100170003D2C08083D2C08083D2C08080000000014
:100180003D2C08083D2C08083D2C08083D2C08088B
:100190003D2C08083D2C08083D2C08083D2C08087B
:1001A000B13007083D2C08083D2C08083D2C0808F4
:1001B0003D2C08083D2C08083D2C08083D2C08085B
:1001C0003D2C08083D2C08083D2C08083D2C08084B
:1001D0003D2C08083D2C08083D2C08083D2C08083B
:1001E0003D2C08083D2C08083D2C08083D2C08082B
:1001F0003D2C08083D2C08083D2C08083D2C08081B
:100200003D2C08083D2C08083D2C08083D2C08080A
:100210003D2C08083D2C08083D2C08083D2C0808FA
:100220003D2C08083D2C08083D2C08083D2C0808EA
:100230003D2C0808ED2B08083D2C08083D2C08082B
:100240003D2C08083D2C08083D2C08083D2C0808CA
:100250003D2C08083D2C08083D2C08083D2C0808BA
:100260003D2C08083D2C08083D2C08083D2C0808AA
:100270003D2C08083D2C08083D2C08083D2C08089A
:100280003D2C08083D2C08083D2C08080000000003
:100290003D2C08083D2C080810B5054C237833B9CF
:1002A000044B13B10448AFF300800123237010BD49
:1002B000C014002400000000A4C5090808B5034BC1
:1002C0001BB103490348AFF3008008BD00000000E4
:1002D000C4140024A4C50908154B002B08BF134BF8
:1002E0009D46A3F5803A00218B460F461348144AD9
:1002F000121A49F0F5FA0F4B002B00D098470E4B1D
:10030000002B00D098470020002104000D000D486C
:10031000002802D00C483BF0C5FC48F0E3FD20006B
:10032000290037F08FFA3BF0D1FE00BF0000080033
:100330000000082400000000A1770708C014002472
:1003400070D50124A5BC07080000000010B520F0FE
:10035000D1FC002106F085FB04462BF0EBFE0B4997
:1003600049F072FD80B90A4920462CF0B7FA0949D4
:10037000094835F00EF820462BF0DCFE0146064811
:10038000BDE8104035F012B80049EDE7A8E50808CF
:100390002AE608082EE608080425012438B5044694
:1003A00020F0A8FC2FF00AFB05462046084C20F060
:1003B000A9FC0146204634F0ECFF0649204634F003
:1003C000E8FF294620460A22BDE8384035F037B814
:1003D000042501241BE6080810B520F08BFC044618
:1003E00027F092FE0146204627F092FE044618B3FD
:1003F000124949F029FD48B91149124834F0D6FF95
:100400004FF4FA70BDE8104035F08EB80E49204622
:1004100049F01AFD08B90D49EFE70D49204649F0AA
:1004200013FD08B90B49E8E70B49204649F00CFDDC
:100430000028E5D10949E0E710BD00BF8DE60808B6
:1004400035E608080425012490E608084BE608086C
:1004500093E6080862E6080896E6080877E60808C2
:1004600037B5044620F046FC0546204620F04AFCFD
:10047000044628462FF0A2FA04210346054A0DEB54
:10048000010049F04FFC01A920462CF027FA03B0E7
:1004900030BD00BF39AF090810B50446006808B187
:1004A0003BF078FE204610BD2DE9F04F074691B095
:1004B000894D00200E4601F089FC286027F01EFDC2
:1004C0000446864927F026FD4FF4967220464FF4E5
:1004D000E67102F0E9FF00230A22012120460DF116
:1004E000200803F02DF8384620F0D2F8C0F3072397
:1004F0008DF80C00C0F307408DF80D304FF4A022AA
:100500008DF80E00204603990CAF06F0FBF94FF46E
:10051000A022FF21204606F004FA304620F0B8F869
:10052000C0F307238DF81000C0F307408DF8113099
:100530008DF8120020466A4A049906F0E3F9684AE9
:10054000FF21204606F0EDF96FF07F4020F0A0F883
:10055000C0F307238DF81400C0F307408DF8153061
:100560004FF4A0228DF816002046059906F0E7F911
:10057000002323225B49204602F0C2FD286827F0B1
:10058000BDFC0446584927F0C5FC20467822C82106
:1005900002F08AFF6FF0130314220421204602F0B8
:1005A000CFFF524820F074F8C0F307238DF81800ED
:1005B000C0F307408DF819304FF4A0228DF81A00CF
:1005C0002046069906F09EF920464FF4A022FF210E
:1005D00006F0A7F92046464C00232322454902F0A5
:1005E0008FFD94E80F00103488E80F0094E80F00A6
:1005F0000024A34687E80F0028682BF085FD58F8F3
:1006000024A0814651462CF069F957F824306FF048
:10061000E50203214846013402F092FF28682FF0DA
:10062000BFF90646FF2200212FF0C6F914229621B9
:10063000304602F039FF49460F2314223046CDF8E8
:1006400000B003F0ABFE28682BF05EFD814630461B
:100650002FF0B4F9284A0346042107A849F062FBA9
:1006600007A948462CF03AF90F2314223146484690
:10067000CDF800B003F092FE4B4623221F493046CE
:1006800002F03EFD534623221D49304602F038FD5C
:10069000042CB1D1286827F05DF8044628225021A7
:1006A00002F002FFB4236FF013020321204602F090
:1006B00047FF20462BF028FD054612492CF00EF985
:1006C000284604F088F800230A220F49204602F049
:1006D00017FD11B0BDE8F08F941500241C00002414
:1006E000200005006908040804000024FF55550097
:1006F00028E50808D903040839AF0908610404088B
:100700009D030408A8E508084D03040810B50A4C29
:1007100022F02CF823686BB134F0F4FE074B1B6811
:10072000C01A40F2DC53984204D9206806F0EAFA75
:100730000023236010BD00BF801500248415002411
:100740002DE9F843D0E9003491460646E41A0F46F5
:10075000A1EB0308A41014BF22460122A41834D22E
:10076000B4F1804F31D294BB254615EB080F18BF6A
:10077000D9F80030D6F8009018BF45F80830B945D0
:10078000A7EB090804D042464946284649F044F8F8
:10079000726808F10403BA422B44A2EB070805D0A3
:1007A00018464246394648F09DFF034603EB0807CA
:1007B000B9F1000F02D048463BF0ECFC05EB840495
:1007C000C6E90057B460BDE8F8836FF04044A0006C
:1007D0003BF0B8FC0546C8E730B51E4C95B0054661
:1007E0002068039118B106F08DFA0023236008F009
:1007F0005BF92BF089FC039B20604021009304A847
:100800002B46154A49F08EFA04A920682CF066F8A8
:100810001248D0E901139942034616D009B1039A50
:100820000A6004315960206800220D4906F096F8EC
:100830006FF0130300220521206802F081FE34F0DE
:1008400061FE084B186015B030BD03AAFFF778FFB2
:10085000E9E700BF8015002448E508088815002452
:100860007C840908841500242DE9F04120F042FA27
:10087000044627F049FC0146204627F049FC04467F
:10088000002800F0A880554949F0DEFA20B154490B
:10089000204649F0D9FA28B921465248BDE8F0412E
:1008A000FFF79ABF5049204649F0CEFA20B14F4990
:1008B000204649F0C9FA10B921464D48EEE74D49A6
:1008C000204649F0C1FA70B14B49204649F0BCFAC4
:1008D00048B14A49204649F0B7FA20B14849204674
:1008E00049F0B2FA10B921464648D7E746492046B2
:1008F00049F0AAFA70B14549204649F0A5FA48B135
:100900004349204649F0A0FA20B14249204649F027
:100910009BFA10B921464048C0E74049204649F0BB
:1009200093FA70B13E49204649F08EFA48B13D49EC
:10093000204649F089FA20B13B49204649F084FA23
:1009400010B921463948A9E73949204649F07CFACF
:1009500020B13849204649F077FA10B92146364887
:100960009CE73649204649F06FFA002833D1344CD1
:10097000206818B106F0C6F90023236008F094F847
:10098000304D2BF0C1FB304920602BF0A7FF2F4FDB
:10099000D5E90068B04505D056F8041B384634F058
:1009A00005FDF7E7294834F0FBFC4FF4FA7034F00A
:1009B000BBFD2B680022264920686B6005F0CEFF46
:1009C0006FF0130300220521206802F0B9FD34F016
:1009D00099FD204B1860BDE8F08100BF5DE5080877
:1009E00065E508086EE50808E2E50808D7E50808A7
:1009F000EDE5080877E508087AE508087EE50808C7
:100A000082E5080886E508088FE5080899E50808E2
:100A1000A3E50808ACE50808B5E50808BBE5080843
:100A2000C7E50808D2E50808DDE50808E7E5080895
:100A3000F6E50808F7E50808FAE5080801E60808F9
:100A400080150024881500240AE6080804250124DE
:100A50007C8409088415002473B5184D4FF4F07296
:100A6000174C4FF44871174B284631F033FF22469C
:100A7000154928463BF014F9812034F015FD06464F
:100A80008220124D34F010FDDD23F2B210490093A4
:100A9000C3B2284600F064F822460E4928463BF0CF
:100AA000FFF80D48002322460C498360C0E900335B
:100AB00002B0BDE870403BF0F3B800BFDC14002486
:100AC00000000024CC0000241F290708F014002493
:100AD000F81800243D0F0408881500249904040820
:100AE00008B540F6B83034F01FFD4FF4E1310A4844
:100AF00033F00AF9094831F02DFF094800F0AEF84B
:100B00004FF408400749FFF7CFFC074B1868BDE8D2
:100B1000084007F08DBD00BF04250124DC1400242B
:100B2000F01400243C4CE7009415002470470B6837
:100B300003604B6843608B68836070470068704750
:100B40000022C26070470C307047CB68C3600BB1A5
:100B50005B6818477047C3680BB19B6818477047BC
:100B600038B504460271016010461D4634F0B0FCF1
:100B7000014604F1080037F05FFA9DF8103084F860
:100B80005850204684F8593038BD2DE9F0410546CB
:100B900000681E460F460368144695F85910DB6A34
:100BA000013C98472868390A264403689B6C98479B
:100BB0002868F9B203689B6C98472868B4420368B8
:100BC00004D01B6814F8011F9847F6E75B6BBDE87B
:100BD000F041184713B502AC012304F8012D224659
:100BE000FFF7D3FF02B010BD2DE9F84304460068BB
:100BF0001F460D460368914694F85910DB6A9847E2
:100C00002068290A03689B6C98472068E9B203684A
:100C10009B6C9847206803685B6B98470546C8B98A
:100C200020682E463A4694F859100368DB6B9847C3
:100C300020685FFA86F8013603681B69984730B16F
:100C4000206803685B69984709F80800F0E7B84531
:100C500018BF04252846BDE8F883000073B5044694
:100C6000006838490368384E9B6A984720680368D3
:100C7000DB6998474FF4967034F056FC012194F8E4
:100C8000580034F085FC0121207934F081FC0021EA
:100C900094F8580034F0C6FC0021207934F0C2FCEE
:100CA0000B2034F041FC94F859102079A1F1940301
:100CB0005942594134F0B6FC6E2034F037FC012122
:100CC00094F8580034F0AEFC062034F02DFC0021DE
:100CD000207934F0A7FC332034F026FC0021207961
:100CE00034F056FC00230DF1070248F24701C4F826
:100CF0008C3020460123FFF777FF05461348037821
:100D0000BFF35B8F13F0010F08D13AF0D9FF28B180
:100D10001AF052FA30600D483AF0F4FF30680121C1
:100D20001AF08AFA30680A491AF08DFAB5FA85F095
:100D3000084B40091C6002B070BD04483BF0EAF962
:100D400045F0D4FC801A06009C1500249815002458
:100D50000D0E0408A015002438B500230D461446D6
:100D600013700A46282348F24E11FFF73DFF30B9B1
:100D70002B781A0605D503F00F03237038BD012028
:100D8000FCE70220FAE770B58CB000240E46054659
:100D90000CAA02A902F8294DFFF7DEFF98BB9DF8C7
:100DA00007000DF111020DF10903314602EBC000FD
:100DB00008330A3183421CD013F8082C13F8064C70
:100DC00001F80A2C13F8072C02EB042213F8044C48
:100DD00021F8082C13F8052C02EB042213F8024C1E
:100DE00021F8062C13F8032C02EB042221F8042C22
:100DF000DEE7002248F24E112846FFF7EBFE9DF891
:100E000007000CB070BD2046FBE7000010B50B4B8F
:100E10008EB00C46186801A9FFF7B5FF50B1012349
:100E200084F82030BDF806306362BDF80830A36254
:100E30000EB010BD84F82000FAE700BFA015002412
:100E400010B504460021FFF77BFE204610BD10B50B
:100E50000446FFF780FE204610BD08B5FFF773FE7D
:100E60000068003018BF012008BD000010B504461E
:100E7000FFF7F3FF28B940F20222064906483AF08C
:100E80003FFAE068FFF75AFE03462046BDE81040EF
:100E9000184700BF17E7080822E7080808B5FFF75A
:100EA000E5FF08BD13B51C4C1C4B204640F8043B25
:100EB000FFF7C6FF002104F140003BF0B9FB04F14D
:100EC00054003BF053FB00234FF48052182120467E
:100ED00000933BF027FC124A204612493AF0E0FE0C
:100EE00000224FF4D061104839F0C0F80C4A0F4985
:100EF0000D4802B0BDE810403AF0D2BE0C483BF0BD
:100F000075FB0C483BF0BDFB0B48FFF7A0FF45F01D
:100F1000EDFBF6E7F8E700BF0016002454B409081B
:100F200000000024A5C70708A41500249BA00708FB
:100F300054160024401600240416002410B504465C
:100F4000083037F09FF8204610BD00207047036836
:100F5000C9B21B68184749000023C161C0F82C3290
:100F60007047036801211B6B184710B403689C6B22
:100F70000123A4465DF8044B6047D0F82C32B3F54A
:100F8000807F1FBF5A1CC0F82C22C01880F82C117B
:100F900014BF0120002070477047C0F8301270471E
:100FA000C0F834127047D0F828312BB1D0F8243172
:100FB000184490F8200070474FF0FF30704738B564
:100FC000036804465B6A9847FC203BF0BBF8B4F921
:100FD0001A20B4F91810054636F0B8FF656138BD1F
:100FE000FC2128463BF0E2F845F080FB38B5D0F80C
:100FF0002C321446054600F596701A441844B2F592
:10100000807F88BFC3F58074224648F06BFBD5F81B
:101010002C3220462344C5F82C3238BD38B504465E
:1010200040690D4608B136F08AFE206920B1294694
:10103000BDE8384036F0E2BF38BD10B504463AF09E
:1010400057FAD4F828413AF069FA204610BD10B595
:1010500004463AF04DFAD4F82831BBB1D4F828311F
:10106000A3B1D4F82431234493F82000D4F82431D8
:101070000133DBB2C4F82431D4F82831013BC4F881
:10108000283104463AF04AFA204610BD4FF0FF34AA
:10109000F8E710B50446406920B10368DB6898475B
:1010A0000023636123699BB1D4F838023BF045FB10
:1010B000D4F838023BF062FBD4F8380210B1036870
:1010C0005B6898479C2120693BF070F800232361FE
:1010D00010BD1FB50246D0F82C3281F001014069E5
:1010E000D46900913BB9012303AA214636F059FE89
:1010F000C0B204B010BD02F59672214636F032FE41
:10110000002814BF02200020F3E770B5B2F5807FFD
:10111000C2B083F00103044628BF4FF4807202AED0
:1011200000934900154613464069324636F039FEB1
:10113000C8B9A84218D0D4F82831B3F5807F10D0B0
:10114000D4F82031325C234483F82020D4F82031B5
:101150000133DBB2C4F82031D4F828310133C4F8AC
:1011600028310130E5E70025284642B070BD70B552
:101170000446C0B00025206936F049FF0328FAD89C
:10118000DFE800F05F021E1ED4F8343203B1984746
:10119000D4F82C32002BEED03AF0AAF994F82C6255
:1011A00004F596716846324648F09CFAC4F82C5211
:1011B0003AF0B4F932466946206936F02CFFDAE796
:1011C000F0226946206936F024FF06463AF090F98D
:1011D0000022C4F82051C4F82451C4F82851B24266
:1011E0001DDAD4F82831B3F5807F18D0D4F828312F
:1011F000B3F5807F11D0D4F820311DF802102344BC
:1012000083F82010D4F820310133DBB2C4F8203148
:10121000D4F828310133C4F828310132DFE73AF03D
:101220007DF9236820461B6998470028A3DDD4F880
:101230003062002E9FD0236820461B699847B04734
:1012400099E734F083F996E738B500254FF47A73BF
:1012500004460183428329464FF48072C0E901535A
:101260000A4BC0E904550360203048F039FBC4F84C
:101270002051C4F82C522046C4F82451C4F83052EE
:10128000C4F82851C4F8345238BD00BF50E70808EC
:1012900010B4D0E9003409686210E4075DF8044B2B
:1012A00001EB020044BF8A58D35818470146043066
:1012B00008B5FFF7EDFF08BD034A0346C26007C942
:1012C00083E80700704700BF30E7080810B586B014
:1012D00004460391684606A980E80C0001E90C0069
:1012E000204603A9FFF7E8FF204606B010BD37B53A
:1012F0006C46054684E80C0094E80C00FFF7E6FF16
:10130000284603B030BD00002DE9F04103680546D2
:1013100088B00E465B6A98479C203AF013FFB5F9F7
:101320001A20B5F91810044636F04EFE710020461A
:101330002C6136F065FEBC203AF004FF04460646F8
:10134000234B04F1400746F8043B3046FFF778FD95
:10135000002138463BF06CF904F1540840463BF05C
:1013600005F91C4B4FF4006218212046009300231E
:101370003BF0D8F9184B294604A8C5F83842029327
:101380000023039302AB0CCBFFF7B1FF04A9204667
:101390003BF030FA10E040463BF028F938463BF08D
:1013A00070F93046FFF753FDBC2120463AF0FEFEAF
:1013B00045F09CF9F2E7F4E704A8FFF748FD08B010
:1013C000BDE8F0819C21F0E704A8FFF740FDEFE7BE
:1013D00054B409083CE708086F11040808B5FFF782
:1013E00065FF08BD08B5FFF7F9FF08BD10B514206B
:1013F00034F06EF80446152034F06AF821460246AF
:101400000B48FFF721FF4FF48B727C210948FFF74F
:101410001BFF092034F05CF80446082034F058F82B
:10142000214602460448BDE81040FFF70DBF00BF4B
:10143000BC160024F8180024341B002470B506469E
:10144000002019F0E9FE002504460CB9284670BDBD
:10145000204619F0FBFE01280AD0204619F0FCFEB8
:10146000864208BF2546204619F0D6FE0446ECE722
:101470002546EBE72DE9F047044689469246C568C4
:101480004FF001080027002D57D1237F1A0704D4FD
:10149000002F64D00020BDE8F087B8F1000FF9D02C
:1014A0002046C8470646002F35D1002EF2D03546DB
:1014B0004FF00008286800F030FD030631D42F6893
:1014C0008FBBE368AB42E5D073B11E682046FFF7DF
:1014D000B5FF14210246304601F0F2FD0128D9D1B2
:1014E000E368186802F078FCE56020462D68FFF795
:1014F000A5FF13210246284601F0E2FD012805461A
:10150000C8D1E368186802F067FC23690BB1204674
:1015100098472846BFE705463E464FF00008002D95
:10152000C8D13746AFE70121384600F05DFC78B9F5
:10153000384605F093FA0746C2E7002F14BF3E462F
:101540002E4629462046D047B0420546E7D1A1E7BE
:101550000121384600F048FC0028B2D0E1E7B8F19C
:10156000000F97D02046C84706469EE72021014835
:101570001FF0F5BDFC4B0124014B586C704700BFB8
:10158000C44B012410B5044600B9FEE7037FDB0716
:101590000BD4074A0749FFF76DFF63693BB130B9C8
:1015A00020460121BDE8104018470020F5E710BD96
:1015B000BD120608B112060810B5044600B9FEE7D0
:1015C000037FDB070BD40749074AFFF753FF0146A8
:1015D000636933B129B92046BDE81040184700219E
:1015E000F6E710BDB7120608C512060870B5064624
:1015F00000F09FFC0446002838D0C368E3B11B68A4
:10160000B34219D1037FDA0744BF6FF300030377B6
:101610001FF04EFEE368834229D120461FF04BFEA7
:10162000E368984223D105682046FFF707FF14219D
:101630000246284601F044FDE36823B11B68B3422B
:1016400004BF0023E36020461FF032FE054668B168
:101650002B6829462046B3421CD11FF0EAFD2846DC
:1016600022F0C0F9B3680BB100225A6070BD237F2D
:101670002046C3F3C00543F0080323775B0706D475
:10168000FFF780FF237F65F3C3032377D4E7FFF7DA
:1016900093FFF7E71FF012FED8E770B50D4604463A
:1016A00020B30846FFF7A2FFAB6813B9284600F045
:1016B0005EFEAB6820465C601FF09FFD064600B9E9
:1016C000FEE7056020461FF0F3FD86420ED1237F22
:1016D0002046C3F3C00543F0080323775B0706D415
:1016E000FFF750FF237F65F3C303237770BDFFF738
:1016F00063FFF7E710B1C06800B10068704713B529
:10170000019100B9FEE7FFF7F5FF044610B901208B
:1017100002B010BD802100F004FC0028F7D101AA1E
:101720001121204601F0CCFCF2E738B5024600B9A1
:10173000FEE7037FC3F340048C4217D061F34103FB
:101740000377FFF7D7FF044680B1D36810461D68C2
:10175000FFF774FE13210246284601F0B1FC012870
:1017600004D12046BDE8384002F036BB38BDF8B59C
:10177000064670B100F0DDFB044650B1017F11F068
:10178000010106D1FFF7D1FF20461FF091FD05466C
:1017900000B9F8BD2B689E4229D1E36883B11F6868
:1017A000BE420DD02046FFF749FE142102463846BE
:1017B00001F086FC0128ECD1E368186802F00CFB0C
:1017C0002369E5600BB120469847E36820461D6811
:1017D000FFF734FE13210246284601F071FC012870
:1017E000D7D1E3681868BDE8F84002F0F5BA294699
:1017F00020461FF063FDCAE710B1007FC0F3400030
:10180000704700B9FEE71FF060BD2DE9F3414D6858
:101810000C468DB3284603F00FF90746284603F01F
:10182000BBF8AE69804610220021284604F0D4F9A6
:10183000019030446E6912220021A0EB0800A061E3
:1018400001382062284604F0C7F9304443F20233DD
:10185000C01B60610138E0616362636A3DB943F4B3
:10186000076343F00403636202B0BDE8F08143F410
:10187000084343F07403F6E741F20203ECE72DE975
:10188000F04FB0F828B089B004460E468B4506D01C
:101890000A46594604F0D7F9029018B9268509B0CE
:1018A000BDE8F08F204602F097FA2046268504F026
:1018B00002FB4FF4207022F083F8638D0021F24385
:1018C000C3F305130546079205930B46059A8A4212
:1018D00068D84FF01408A94608FB0358C84540F0E3
:1018E0008B80284622F07EF8029B03F0FD03012B3B
:1018F00040F09080FF224FF47021204609B0BDE8EF
:10190000F04F04F035BB682A00F1080011D1DEF871
:1019100004201068013807460CF47F00069017F881
:10192000010F039048B11F2B07D8AE464FF00009B6
:101930001DE002788646002AE5D10131C6E7013272
:1019400050E09EF80880039880450CD1DEF8040032
:10195000049000F47F0080460698804503D1BDF8CE
:101960001080D045DBD209F101090EF1140E4B4570
:10197000E7D1142000FB03F8D068013325F80800F4
:1019800005EB080E1069AEF802009068CEF80C0066
:1019900097F800808EF808805068CEF804C0CEF822
:1019A0001000BCE71F2B94D8C800D4F80CE00EEB55
:1019B0000008D8F80420C2F3170C079A1FFA8CFA13
:1019C00012EA0A0FB9D198F8072012F00202B4D136
:1019D0005EF8000090F808E00068BEF1FF0FA8D0A4
:1019E00000EB8E089645A8D918F80290B9F1680F57
:1019F000A5D150F822208CE7D9F804103346CDF851
:101A000000905A4601F47F01204604F06BFD09F175
:101A1000140963E7029B022B7FF441AF204602F0DA
:101A2000DBF9204609B0BDE8F04F01F083BA2DE99B
:101A3000F0410546AEB01FF05FF9064628461FF09C
:101A400057F91A2E04467DD128461FF059F903781C
:101A50000646022B09D02D220021204604F0BCF8B6
:101A60000546099020B1022333702EB0BDE8F08105
:101A700001460C22204604F0AFF86A22074609907E
:101A80002946204604F0A8F86B2280460990294692
:101A9000204604F0A1F8636902464146099309A86B
:101AA000A3690A93E3690B93236A0C931EF013F95D
:101AB0003A4609A970681EF0E8F908B90123D3E78E
:101AC0001D222946204604F087F80590C0B2FC2864
:101AD000F4D962222946204604F07EF80590C0B26F
:101AE000FC28EBD920222946204604F075F810F096
:101AF000FF0F059011D025222946204604F06CF8EE
:101B00000590C0B2FC28D9D924222946204604F0E9
:101B100063F80590C0B2FC28D0D9262200212046C7
:101B200004F05AF8059028B1827A052313FB0203CA
:101B3000984201D1002397E7053010F8022CFC2AC7
:101B4000F6D8BBE71D2E38D1284601F0FBFA054632
:101B500009A808F0DBFF09AA002120460D9500F036
:101B600098FD35220021204604F036F8059028B172
:101B70009DF8983043F020038DF898306A220021B8
:101B8000204604F029F86B220646059000212046E5
:101B900004F022F8636902463146059305A8A3695B
:101BA0000693E3690793236A08931EF094F805AA45
:101BB00009A9284609F02FF857E7202E7FF455AFE2
:101BC000284601F0BFFA05AA064601A9204603F0FF
:101BD000BFFA01A81EF075F8002800F0AA8009A835
:101BE00008F094FF1D224FF48031204603F0F4FFEB
:101BF000C0B202288DF852000FD91C224FF4803158
:101C0000204603F0E9FFC0F30722C0F307438DF835
:101C100056008DF857208DF8583032224FF480311D
:101C2000204603F0D9FFC0B202288DF8530019D91D
:101C300030224FF48031204603F0CEFF002825905B
:101C400040F3BC8031224FF48031204603F0C4FFC2
:101C5000C0F30722C0F307438DF890008DF8912060
:101C60008DF892303E224FF48031204603F0B4FFCD
:101C70000090C0B202288DF8550022D93C224FF4C2
:101C80008031204603F0A8FF002800902A9040F3FE
:101C9000998042224FF48031204603F09DFF3D227F
:101CA0002D904FF48031204603F096FFC0F30722B9
:101CB000C0F3074300908DF8A4008DF8A5208DF89F
:101CC000A6304FF48031204604F0C7F8FC280BD82A
:101CD0009DF8523013FB00F0C0F307208DF852003E
:101CE0008DF853008DF85500BDF8523013B99DF8AA
:101CF000553023B30C224FF48031204603F06CFFA3
:101D00000090109001A81DF0DCFF30B1002301AA63
:101D100009A930460B9308F07EFF05A81DF0D1FFFE
:101D200068B1012305AA09A930460B9308F073FF97
:101D300005E005A81DF0C5FF00287FF450AF302254
:101D40000021204603F048FF099000283FF48DAEA3
:101D500035220021204603F03FFF099000283FF480
:101D600084AE002509A808F0D1FE09AA294620461C
:101D70008DF852508DF84F50ADF854500D9600F03C
:101D800088FC6A222946204603F026FF6B2207467C
:101D900005902946204603F01FFF63690246394635
:101DA000059305A8A3690693E3690793236A08933B
:101DB0001DF091FF05AA09A93046FBE600238DF826
:101DC00053304FE700238DF855307AE710B50146C0
:101DD000044800F0FBFA044600B9FEE700F075FB8A
:101DE000204610BDA0E7080800B9FEE7436A31EAC3
:101DF00003030CBF012000207047F8B50E460546CE
:101E000000B9FEE7038D19438B420ED0FFF737FD73
:101E10004FF480012846FFF7E7FF30B12846002441
:101E200004F057FE0746A74200D1F8BD21462846D8
:101E300004F017FE10B13146FFF7DFFF0134F2E77F
:101E4000F8B50E46054600B9FEE7038D23EA010109
:101E50008B420ED0FFF713FD4FF480012846FFF7A9
:101E6000C3FF30B12846002404F033FE0746A742E2
:101E700000D1F8BD2146284604F0F3FD10B13146EB
:101E8000FFF7DEFF0134F2E70AB1FFF7B6BFFFF755
:101E9000D7BF00B9FEE7436A194214BF01200020F2
:101EA000704770B50D4688B0044600B9FEE7FFF7ED
:101EB000F0FF80B3204601F005FBEA0606460CD58C
:101EC00004AA6946204603F043F96946204601F01A
:101ED00056FF04A9204601F052FF636A23EA050376
:101EE0006362EB070AD5204601F076FF204604F036
:101EF000B5FD01F001FB204601F0FEFA204601F09D
:101F0000E1FA864202D115F0C07F04D0204604F0E9
:101F1000A5FD01F0F1FA08B070BD00B9FEE7008D33
:101F2000704700B9FEE7038D194214BF012000205D
:101F3000704700B9FEE7806800B1406870472DE93E
:101F4000F04108460E4688B01EF0D6FE05463046E3
:101F50001EF0CEFE012D044603D12021FFF74DFFD8
:101F60002FE00B2D1FD12021FFF76AFF30461EF016
:101F7000C7FE19F094F920BB08212046FFF734FF73
:101F8000F8B104B9FEE7238D01212046DD0702D414
:101F9000FFF733FF01E0FFF753FF00222321204624
:101FA00001F08EF80DE0032D03D12021FFF748FF4B
:101FB00007E0322D10D104F08CFD00250646B54215
:101FC00002D108B0BDE8F081A3681B6853F8250072
:101FD000013501F091FAF2E7112D40F085800821DA
:101FE000FFF702FFA8B1304601F0B4F820F0020379
:101FF0000546112B02D101212046C9E7142801D042
:10200000122803D101212046FFF71AFF0A2DD8D04C
:10201000C3E74FF401612046FFF7E6FE0028D0D069
:10202000204600F03CFA0028CBD1204602F004FD07
:102030000746204602F05EFD0546304601F08AF86C
:1020400012280CD1204602F0A2FC0546204601F0E1
:10205000C7FA0423002290FBF3F041190DE0112888
:102060000FD1204602F093FC0546204601F0B8FA55
:102070000423002290FBF3F0291A204602F0FAFE16
:102080009FE7132818D1204602F066FC8107D9D0BB
:10209000002F01DC002DD5DD204602F073FC054643
:1020A000204601F098FA0423002290FBF3F0411936
:1020B000204602F0CBFE84E7142882D1204602F0AD
:1020C0004BFC8207CDD0002F01DC002DC9DD20465E
:1020D00002F058FC0546204601F07DFA0423002258
:1020E00090FBF3F0291AE3E7132D29D14FF4806117
:1020F000FFF77AFE18B10121204602F0FDFF2046CD
:10210000FFF717FFFFF778FB054619F08FF810B9B6
:10211000304601F009F819F099F8022808D004288F
:102120000CBF062102212DB141F00801204615E720
:102130000621F8E72046FFF760FE0821204635E734
:102140000C2D01D1402109E70E2D16D14021FFF7BA
:1021500077FE204602F0F7FB02287FF432AF04AA94
:102160006946204602F0F4FF6946204601F007FE6A
:1021700004A9204601F003FE23E7142D01D10E210E
:1021800014E7312D23D10A22002103F025FD162268
:10219000049005460021204603F01EFD049080B205
:1021A00010B915F0FF0F02D0204601F0A5F9204626
:1021B000002504F08EFC0646B5423FF402AFA3684A
:1021C0001B6853F82500013501F096F9F4E72A2D34
:1021D00027D10122002103F0FFFC022204900021FC
:1021E0000746204603F0F8FC0A2204900021064628
:1021F000204603F0F1FC16220490C5B200212046CF
:1022000003F0EAFC049080B238B935B96FF040436E
:102210009F4202D09E427FF4D4AE204601F06CF97A
:10222000CFE62C2D06D190F82A3043F0020380F837
:102230002A30F2E71B2D07D1002100F018FE0146DD
:10224000304600F09FFFBCE6A5F11A02062A07D827
:102250004923D340DB070AD53046FFF7E8FBB0E659
:10226000172D04D12021FFF7EBFD402166E7182D43
:1022700001D110215AE7192D7FF4A3AE10215DE79B
:1022800010B508460C461EF045FD002003F09EFCEC
:10229000204603F06FFF012003F098FC0021204648
:1022A0001DF0B6FA2046FFF744FE10B12046FFF7B6
:1022B0009DF9A3687BB1186820B121F093FBA36856
:1022C00000221A60A06808301EF0F6FCA06821F019
:1022D00089FB0023A36010BDF0B50D4689B004460C
:1022E00000B9FEE7FFF780FD00283ED1204601F04F
:1022F000E9F815F00107064602D0204601F06CFD12
:10230000636A2B4363628FB102212046FFF709FE07
:1023100060B12046FFF70DFE074638B1FFF732F9EE
:102320003846FFF7E7F908B101F056FD204601F005
:10233000C9F8864202D115F0C07F07D0204604F0CC
:102340008DFB01F0D9F8204601F0D6F8EB060CD54C
:1023500004AA6946204602F0FBFE6946204601F0C9
:102360000EFD04A9204601F00AFD09B0F0BD10B52C
:10237000044600B9FEE7836873B9342021F020FBDE
:10238000A06000B9FEE7438E43F470734386DBB26E
:1023900043F0030380F8323010BD18B10068431ACF
:1023A00058425841704770B50D6806460C462B6878
:1023B0001BB10B60FFF7F7FF25606B6823B1214667
:1023C0003046BDE87040184770BD000070B52C4A1B
:1023D00006460D4620B1036A1A4212D0C3F30F100D
:1023E00021F0EEFA044650B1C0E900657DBB05F06E
:1023F000A7FE064638B920462C4621F0F3FA2046BF
:1024000070BD0068E6E7D0F8BC0208B9C6F8D8523B
:10241000D6F8D8120131890021F0EEFA00B9FEE7B2
:10242000D6F8D8320025C6F8BC025A1CC6F8D82205
:1024300040F823402846C4E9055505F091FE0138CF
:10244000E061284605F09EFE01382062D7E7AB68C0
:1024500013B92846FFF78BFFAE68318E3068013123
:1024600089B23186890021F0C7FAAA683060138EDC
:10247000126803F18043013B42F82340BFE700BFED
:10248000F0FF0F0010B50446206883680BB12146A9
:10249000984723681B680BB12360F5E710BD0068FF
:1024A00038B190F8203013F00303F8D0013B5842C4
:1024B00058417047006838B190F8203013F00C0391
:1024C000F8D0043B58425841704738B50446B0B381
:1024D00001F012F8002003F079FB204623F07AFE89
:1024E00021462068FFF75FFF012003F06FFBFF220A
:1024F0004FF47021204603F03BFD204601F0E4FA42
:10250000FFF73AF8024638B12046FFF7D3FF18B17B
:1025100021461046FFF7C1F8204604F09FFA054611
:1025200068B122462A2100F0CBFD224628462B2105
:1025300000F0C6FD2046BDE8384001F04DBC38BD76
:1025400030B504460D4685B0582203F045FB2946B8
:102550000246204603F073FB03460020DAB262F322
:102560000700C3F30722C3F3074362F30F2063F3AB
:10257000174005B030BD13B55AB192F84E4029B19D
:10258000622203F029FBC0B24443240A204602B071
:1025900010BD02B0BDE8104003F05FBC70B586B05E
:1025A00001939DF82850D2B1936C92F84B4003935D
:1025B00031B18DF80F40039A04F00AF9040E03902C
:1025C00085B184B1294601981EF018F88DF80F40A6
:1025D0000146039806B0BDE870401EF022BA04F030
:1025E0002DF9EBE734B92946019806B0BDE87040F3
:1025F0001EF004B88DF80F402846039B05939DF804
:10260000143063F307009DF8153063F30F209DF835
:10261000163063F317409DF8173063F31F6006B060
:1026200070BDF0B587B0019313467AB392F8482095
:1026300093F8496093F84A5093F84B4081B18DF874
:1026400014208DF815608DF816508DF81740059AF6
:1026500004F0BEF8C2B2C0F30726C0F30745040E6B
:10266000314628461EF024F88DF80C00C0F30723ED
:10267000C0F30740224601998DF80D308DF80E0009
:10268000039807B0BDE8F0401EF0FCB804F0D6F89F
:10269000E0E7F0B50D468BB014460646C2E90001EE
:1026A0001269FFF768FF074645B1022806D80023E4
:1026B00084F82B30E38523860BB0F0BD0C2229462D
:1026C000304603F089FA94F82E30E061002B41D0B7
:1026D0001D222946304603F07FFAC0B2022884F852
:1026E0002E0037D91C222946304603F075FA2946B8
:1026F00002460390304603F0A2FAC0F30722C0F36B
:1027000007438DF81C008DF81D2029468DF81E30DA
:102710003046079B2269FFF784FFC0F3072384F844
:102720003200C0F30740294684F8333084F834007F
:102730002622304603F050FA01460990002800F0A6
:102740005181C37A1A0700F04D81302204F138001C
:1027500020F008FD94F82F30002B40D0302229467D
:10276000304603F039FA2067C8B332222946304692
:1027700003F032FAC0B2022884F82F002FD9342295
:102780002946304603F028FA94F87430312229465D
:1027900060F30403304684F8743003F01DFA2946D0
:1027A0000246304603F04BFAC0F30722C0F307435A
:1027B00009908DF8240029468DF8252030468DF8A3
:1027C0002630099B2269FFF72CFFC0F3072384F80A
:1027D0006C00C0F3074084F86D3084F86E0094F804
:1027E0003030002B3BD038222946304603F0F4F934
:1027F000A067A0B33A222946304603F0EDF9C0B2F3
:10280000022884F830002AD93B222946304603F0BA
:10281000E3F93922E0672946304603F0DDF929461D
:102820000246304603F00BFAC0F30722C0F3074319
:1028300009908DF8240029468DF8252030468DF822
:102840002630099B2269FFF7ECFEC0F3072384F8CA
:102850007500C0F3074084F8763084F8770094F868
:102860002B30002B42D028222946304603F0B4F901
:10287000206200283AD029222946304603F0ACF9DC
:10288000C0B2022884F82B0030D9206A07F0B2F9D0
:10289000022840F0FD805A222946304603F09CF978
:1028A0002946099060623046FFF74AFE8DF8240001
:1028B000C0F30723C0F30740226929468DF826009C
:1028C00030468DF82530099BFFF7ABFEC0F3072398
:1028D00084F82800C0F3074084F8293084F82A00DF
:1028E00089222946304603F077F9A06694F8313002
:1028F000002B50D03C222946304603F06DF9C4F835
:102900008400002847D094F83130022B43D93E226E
:102910002946304603F060F9C0B2022884F831003D
:1029200039D940222946304603F056F94122C4F8ED
:1029300088002946304603F04FF94222C4F88C0043
:102940002946304603F048F93D22C4F89000294654
:10295000304603F041F929460246304603F06FF94C
:10296000C0F30722C0F3074308908DF820002946E2
:102970008DF8212030468DF82230089B2269FFF720
:1029800050FEC0F3072384F88000C0F3074084F8AA
:10299000813084F88200FC2F3FF68EAE94F82E3002
:1029A00013FB07F31B1284F82E3094F82B3013FB23
:1029B00007F31B1284F82B3094F82F3013FB07F326
:1029C0001B1284F82F3094F8313013FB07F31B12DD
:1029D00084F8313094F8303013FB07F73F1284F855
:1029E000307069E620222946304603F0F5F894F865
:1029F000433060F3030384F843301B073FF4AAAE6F
:102A000023462946304633F8322F9B7822872322EB
:102A100084F83A3003F0E0F829460246304603F0E5
:102A20000EF9C0F30722C0F307438DF820008DF89C
:102A3000212029468DF822303046089B2269FFF775
:102A4000F0FDC0F3072384F83D00C0F3074084F88D
:102A50003E30212284F83F002946304603F0BCF87E
:102A6000222284F83C002946304603F0B5F824229F
:102A700084F841002946304603F0AEF8252284F858
:102A80003B002946304603F0A7F884F8400061E691
:102A90002A222946304603F09FF82946024630464E
:102AA00003F0CDF8C0F30722C0F307438DF8080008
:102AB0008DF8092029462B2230468DF80A3003F084
:102AC0008BF8C0B2029B2269294600903046FFF77E
:102AD00065FDC0F30721030EC2B2C0F3074084F8BE
:102AE0002C301DF0E5FDC0F3072384F82800C0F367
:102AF000074084F829302C2284F82A0029463046E1
:102B000003F06AF8003018BF012084F82D00E7E6D2
:102B100073B5144605460E46C2E90001592203F07A
:102B20005BF8C0B2022884F85A0053D922693146B2
:102B30002846FFF720FDFC289FBF94F85A3013FB6E
:102B400000F0001284F85A0094F85A30022B41D950
:102B500031462846FFF7F4FC8DF80000C0F3072348
:102B6000C0F30740226931468DF8020028468DF8EF
:102B70000130009BFFF755FDC0F3072384F82C00BC
:102B8000C0F3074084F82D305B2284F82E003146D4
:102B9000284603F021F85C2260633146284603F0A2
:102BA0001BF85D2220633146284603F015F894F89F
:102BB0005C305A22314660F30203284684F85C30C8
:102BC00003F00AF85E22A0623146284603F004F8BA
:102BD00084F8580002B070BD2DE9F041144686B06B
:102BE00005460E46C2E90001442202F0F5FFC0B2DC
:102BF000022884F850006DD9226931462846FFF733
:102C0000BAFCFC289FBF94F8503013FB00F0001270
:102C100084F8500094F85030022B5BD94FF4807345
:102C2000002205F114080227A3634046C4E90C23DF
:102C30001DF0E6FB90FBF7F0606440461DF0E5FBFD
:102C40004522314690FBF7F0A064284602F0C4FF0D
:102C500031460246284602F0F2FFC0F30722C0F3D5
:102C600007438DF808008DF8092031464622284692
:102C70008DF80A3002F0B0FFC0B2029B22693146E3
:102C800000902846FFF78AFCC0F30721030EC2B26A
:102C9000C0F3074084F84F301DF00AFDC0F307234E
:102CA00084F84C00C0F3074084F84D30892284F842
:102CB0004E003146284602F08FFF606556B169220A
:102CC0003146284602F088FF94F8513060F3030340
:102CD00084F8513006B0BDE8F0817FB51446054652
:102CE0000E46C2E900014D2202F076FFC0B2022872
:102CF00084F83C005AD9226931462846FFF73BFC4C
:102D0000FC289FBF94F83C3013FB00F0001284F8BD
:102D10003C0094F83C30022B48D9482231462846E2
:102D200002F05AFF2063002840D04C22314628464A
:102D300002F052FF31460246284602F080FFC0F3FF
:102D40000722C0F307438DF804008DF805203146B3
:102D50008DF806302846019B2269FFF762FCC0F31C
:102D6000072384F82C00C0F3074084F82D30492253
:102D700084F82E003146284602F02EFF606328B109
:102D80004A223146284602F027FFA0634B223146F3
:102D9000284602F021FF003094F83D3018BF012092
:102DA00060F3000360F3410384F83D3004B070BD6C
:102DB0007FB5144605460E46C2E90001502202F0D6
:102DC0000BFF2062002850D053223146284602F0E3
:102DD00003FFC0B2022884F83A0046D9226931467E
:102DE0002846FFF7C8FBFC289FBF94F83A3013FB36
:102DF00000F0001284F83A0094F83A30022B34D9EB
:102E000052223146284602F0E7FE31460246284665
:102E100002F015FFC0F30722C0F307438DF804004A
:102E20008DF8052031468DF806302846019B226931
:102E3000FFF7F7FBC0F307232077C0F30740637762
:102E40005422A0773146284602F0C6FE5122606324
:102E50003146284602F0C0FE003094F83B3018BFDF
:102E6000012060F3000384F83B3004B070BDF7B577
:102E70003C2205460E4602F0AFFE044660BB00242D
:102E800038223146284602F0A7FE074680B13A2292
:102E90003146284602F0A0FEC0B2022808D93B22E3
:102EA0003146284602F098FE38448442B8BF0446B2
:102EB00031466A22284602F08FFE07466B223146D1
:102EC000284602F089FEB842B8BF38460028C8BF7D
:102ED0002418204603B0F0BD3E223146284602F0B9
:102EE0007BFEC0B20228CAD90223422231462846BC
:102EF00094FBF3F4013402F06FFE402231460444A7
:102F0000284602F069FE412207463146284602F073
:102F100063FE0028B8BF4042002FB8BF7F42B842CE
:102F2000ACBF2418E41924EAE474A9E7806800B16E
:102F3000C06A704737B5044600B9FEE7FFF7F6FFF1
:102F400002AA002305461B21204642F8043D00F05A
:102F5000B7F8A268019B42B1D362019BAB4202D099
:102F6000204600F039FF03B030BD002BF5D02046DD
:102F7000FFF7FDF9A368019ADA62EEE7806818B1FD
:102F800090F83300C0F38100704710B50C4668B963
:102F90000B68186860B1C36843B100222146E26043
:102FA0009847207EC04300F0010002E00068F1E78E
:102FB000012010BDF8B5044618F038F938B1237E69
:102FC00013F0020001D00120F8BDDD07FCD4266813
:102FD000B56805B108350122214628461DF0A8FD37
:102FE0000128F1D1207E10F00200ECD12146FFF73C
:102FF000CCFF0128E8D1227E12F00202E3D1214663
:1030000028461DF095FD0128DED1237E9807DAD4ED
:10301000206803F023FD054648BB237E1907D2D460
:103020004FF400112068FEF7DFFE0028CBD0A36824
:10303000163B1E2B06D8012202FA03F31F4A1A4040
:10304000002AC0D13046002503F043FD237E074609
:1030500043F004032376BD42B5D0237E9B07B2D450
:103060002946304603F0FDFC08BB0135F3E7237E1B
:103070005A07D2D4A3682B3B012B11D94FF48041BE
:103080002068FEF7B1FE0028C7D0A368163B1E2BB0
:1030900006D8012202FA03F3084A1A40002ABCD1DA
:1030A00025602046FFF786FF01288DD1B5E7206017
:1030B0002046FFF77FFF0128D7D085E7F19F78589A
:1030C00010B588B0D0B19DF81C300391002103F0F9
:1030D000F80361F3C303CDE9010001A88DF81C30AA
:1030E000CDE904121DF016FD01A8FFF763FF0446A9
:1030F00001A81DF017FD204608B010BD0124FAE715
:103100002DE9F0410C4615461E46074600B9FEE77C
:10311000FFF72DF9B86833462A4621460830BDE846
:10312000F0411DF08DBD00008268192A05D8044BBE
:10313000D340DB0701D51DF0E3BD0020704700BF81
:103140001EDF3B0383681C3B052B01D81DF0D8BD57
:103150000020704708B58368112B01D0002008BDFE
:103160001DF0CEFD0028F9D00068F8E708B58368A7
:10317000122B01D0002008BD1DF0C2FD0028F9D09F
:103180000068F8E783681B2B10B50C4606D11DF0CC
:10319000B7FD0368A342ACBF0360046010BD00B973
:1031A000704783682BB193F8333003F00C03082B7E
:1031B00001D04068F3E70120704707B527220021BE
:1031C00002F00AFDC0B203B05DF804FB2DE9F04F38
:1031D00004468BB08A469346002170221F4602F0B7
:1031E000FBFC6E220890002180468146204602F0BA
:1031F000F3FC01280890054605904FF06F024FF050
:1032000000012046B8BF012502F0E6FC0128064671
:103210000890B8BF0126B8F1000F06D1059BB3F5A1
:10322000807F02D1B0F5807F6AD0712200212046D4
:1032300002F0D2FC722208900021204602F0CCFC61
:10324000089B099003F0C042B2F1005F19D123F04E
:10325000C0436FF06042934213D0B3F1805F04F13A
:103260001400A2BFC3F17F6303F57F2303F6FF734E
:1032700005931DF0C5F8059B5843642390FBF3F0BC
:103280000890099B03F0C042B2F1005F19D123F00E
:10329000C0436FF06042934213D0B3F1805F04F1FA
:1032A0001400A2BFC3F17F6303F57F2303F6FF730E
:1032B00005931DF0AAF8059B5843642390FBF3F097
:1032C00009906269089B1344A2690893099B1344FF
:1032D00009934FB14FF6FF73C8F10009EA18334460
:1032E00092FBF5F593FBF6F608AB87F001074A462B
:1032F000594602975046CDE900632B461CF0A5FFC6
:103300000BB0BDE8F08F73B505461222002102F024
:1033100063FC302204460021284602F05DFC342282
:1033200006460021284602F057FC430748BFA4196F
:10333000204602B070BD73B505461122002102F08F
:103340004BFC302204460021284602F045FC342282
:1033500006460021284602F03FFCC30748BFA419D7
:10336000204602B070BD73B505461022002102F060
:1033700033FC302204460021284602F02DFC342282
:1033800006460021284602F027FC830748BFA419FF
:10339000204602B070BD73B505461322002102F02D
:1033A0001BFC302204460021284602F015FC342282
:1033B00006460021284602F00FFC030748BFA41967
:1033C000204602B070BD37B50C46054600B9FEE791
:1033D000002301AA082102F017FC012804D1019B57
:1033E000A34203D103B030BD0028FBD10022214607
:1033F000284603F072FAF5E737B50C46054600B9E2
:10340000FEE7002301AA092102F0FEFB012804D1F6
:10341000019BA34203D103B030BD0028FBD10022A1
:103420002146284603F060FAF5E738B5154604460C
:1034300000B9FEE7FFF7C7FF29462046BDE8384040
:10344000FFF7DABF37B50C46054600B9FEE70023A3
:1034500001AA012102F0D8FB012804D1019BA3425B
:1034600003D103B030BD0028FBD1002221462846FD
:1034700003F01EFAF5E737B50C46054600B9FEE73E
:10348000002301AA022102F0BFFB012804D1019B05
:10349000A34203D103B030BD0028FBD10022214656
:1034A000284603F013FAF5E738B51546044600B987
:1034B000FEE7FFF7C7FF29462046BDE83840FFF783
:1034C000DABF000037B50B490546FEF7E2FC0446BB
:1034D00010B1002003B030BD284603F0BFFA002829
:1034E000F7D01622214602F077FB80B2003018BFD9
:1034F0000120EFE70100060008B590F82A3043F0FC
:10350000010380F82A3003F07EFA90F82A3043F065
:10351000040380F82A3003F07DFA00223821BDE848
:10352000084005F0ABB910B5044600B9FEE700222B
:1035300089B203F028FA2046BDE81040FFF7DCBF4F
:1035400070B5044615461E46002203F0D4F92946FC
:1035500032462046BDE87040FFF767BF00B9FEE77E
:1035600043690B6083694B60C3698B60036ACB60FE
:10357000704738B5044600B9FEE703F06FFA636997
:10358000054648B144691C1B01F0FCF90444284677
:10359000FFF7B9FE201A38BD1846FCE738B50446D7
:1035A00000B9FEE703F05AFAA369054648B18469F9
:1035B0001C1B01F0ECF904442846FFF7D4FE201A46
:1035C00038BD1846FCE707B50922002102F004FBCC
:1035D00003B05DF804FB00B9FEE714301CF010BF27
:1035E00000B9FEE714301CF010BF38B5054600B92D
:1035F000FEE7FFF7D3FF04462846FFF7F1FF20441C
:1036000038BD70B5054600B9FEE7FFF77CFE0446FD
:103610002846FFF7C0FE06462846FFF7DCFF001BE2
:10362000801B70BD70B5054600B9FEE7FFF79BFE35
:1036300004462846FFF77FFE06462846FFF7D0FFE0
:10364000001B801B70BD38B50C46054600B9FEE76F
:10365000FFF784FFFFF757FE2368184420602846D1
:10366000FFF799FEA368181AA0602846FFF77BFEB3
:103670006368184460602846FFF75DFEE368181A27
:10368000E06038BD07B5064B00223421CDE90023A8
:103690006A46FFF715FD009803B05DF804FB00BF14
:1036A000010000E02DE9F04F6FF0404787B004467D
:1036B0009246B94240F0E7801368002B80F28C807C
:1036C00001F060F9A36802900BB100221A62204653
:1036D0004FF00009FFF75FFE064620468A4FFFF7CE
:1036E00012FE83462046FFF7CDFF5844831920463B
:1036F000009303F0EEF901902046FFF75EFD0128EC
:1037000052D0019AA3684A4571D17F4B9F4252D053
:10371000374451E01B687D4953F829502846FEF78D
:10372000B8FB00283ED12846FFF7CCFE014670B911
:103730000A22284602F050FA0590C0B208280CD898
:10374000012303FA00F040F24913184205D0E3695F
:103750006A699B1A03F1010813E008220021284638
:1037600002F03AFA00283DD1039005F114001CF054
:1037700047FE06EB00081A220399284602F02CFAAD
:1037800080441A220021284602F026FA059040447F
:10379000B84207DB1A220021284602F01DFA08EB86
:1037A0000007059009F10109019AA3684A45B1D1C2
:1037B000554B9F4219D1544FA26812B1029B5B42F4
:1037C0001362514B9F4204D0009BBB42B8BF3B46A3
:1037D0000093009BCAF80030DAF80010084607B0E2
:1037E000BDE8F08FDFF82081CBE75F44E4E71B689A
:1037F000464953F829502846FEF74BFB00283CD198
:103800002846FFF75FFE014668B90A22284602F003
:10381000E3F90590C0B207280BD8012303FA00F0A2
:1038200010F0930F05D0EB6962699B1A03F1010850
:1038300012E008220021284602F0CEF900BB0390D6
:1038400005F114001CF0DCFD0BEB00081B220399B2
:10385000284602F0C1F980441B220021284602F0CC
:10386000BBF905904044B84207DB1B2200212846E3
:1038700002F0B2F908EB0007059009F1010940E7F1
:10388000DFF88480E8E701F0C043B3F1005FA5D121
:1038900021F0C0456FF060439D429FD003F0DEF8F9
:1038A00090F82B10064611F008010DD1012202F00C
:1038B00093F9B84208D12046FFF725FD054620467A
:1038C000FFF769FD291889E730466426FFF799FE5E
:1038D000B5F1805F4FF01A02A2BFC5F17F6505F513
:1038E0007F2505F6FF7505FB00F1204691FBF6F6F6
:1038F000002102F071F9054600211B22204602F04A
:103900006BF94119711A69E7010000E00100040038
:1039100007B50023054A3421CDE900236A46FFF7A5
:10392000CFFB019803B05DF804FB00BF010000E08D
:103930002DE9F04F6FF0404787B004469246B942F8
:103940007CD11368002B2DDA01F021F8A3680190D7
:103950000BB100225A6220464FF00009FFF703FD29
:1039600083462046564EFFF7E6FC00902046FFF7C0
:10397000CFFF009B5844C718204603F0AAF80290D6
:10398000029AA3684A4513D113B1019A52425A626E
:103990004B4B9E4204D0009B33449F42B8BF1F460E
:1039A000CAF80070DAF80010084607B0BDE8F08FDA
:1039B0001B68444953F829502846FEF76AFAB8BBF9
:1039C0002846FFF77FFD804640B901460A22284677
:1039D00002F002F90590C0B2032805D82B6AA2694B
:1039E0009B1A03F1010812E009224146284602F021
:1039F000F3F800BB039005F114001CF006FD0BEB7F
:103A0000000818220399284602F0E6F8804419229B
:103A10000021284602F0E0F805904044B04207DB60
:103A200019220021284602F0D7F808EB000605907D
:103A300009F10109A4E7DFF88880E8E701F0C04355
:103A4000B3F1005FB0D121F0C0456FF060439D42FB
:103A5000AAD003F003F890F82B10064611F00401E9
:103A60000DD1022202F0B8F8B84208D12046FFF783
:103A70007AFC05462046FFF75EFC291894E730469D
:103A80006426FFF7CFFDB5F1805F4FF01802A2BFAB
:103A9000C5F17F6505F57F2505F6FF7505FB00F18E
:103AA000204691FBF6F6002102F096F8054600212B
:103AB0001922204602F090F84119711A74E700BFEC
:103AC000010000E00100040037B504460122002196
:103AD00002F082F8022205460021204602F07CF81E
:103AE0006FF040439D4201D0984205D12046FFF738
:103AF00003FD012003B030BD0020FBE72DE9F047B6
:103B000081460E4617469A46002502F0E2FF80469F
:103B1000454501D1BDE8F087D9F808301B6853F856
:103B20002540BAF1000F13D163693A463146204669
:103B300033446361A3693B44A361E3693344E361B4
:103B4000236A3B4423620023FFF7D8FF0135DFE7F8
:103B50004FF480212046FEF747F90028F6D1E3E72D
:103B60002DE9F04704460D4616461F4603F00108AE
:103B700003F002096CB32046FFF700FA09F0FF03D7
:103B80008246B9F1000F15D0B8F1000F07D02046DA
:103B900002F064FF3B4632462946FFF7E1FFBAF1E7
:103BA000020F16D13246294620460123BDE8F047D0
:103BB000FFF70CBB022804D1324629462046FFF706
:103BC00005FBB8F1000F04D0204602F047FF044681
:103BD000D0E7BDE8F08713460122FFF7C1BF30B53B
:103BE0000B6889B04D680C460093CDE90153CB6852
:103BF0008968013301310393CDE90415CDE906133A
:103C0000134669460422FFF7ABFF069B049D1A4644
:103C10000298AB420099A8BF2A468242A8BF02463A
:103C20008A42D4BF22602160AB42B8BF2B46059DBB
:103C30008342B8BF034603988B42ACBFA360A16028
:103C4000079B0199AB421A46A8BF2A468242A8BFE9
:103C500002468A42D4BF62606160AB42B8BF2B4665
:103C60008342B8BF03468B42ACBFE360E16009B05A
:103C700030BD2DE9F0410E4688B001210446FEF723
:103C8000B3F80746002878D1204602F0BCFE05466E
:103C900002F0C0FE804604F041FB854227D1204659
:103CA000FFF744F963690246014600936846A36939
:103CB0000193E3690293236A03931CF00CF86A46AC
:103CC000314630461CF023F8804620B32046FFF7EB
:103CD00066FA20B1012231462046FFF780FF2046D8
:103CE00004AD02F0BBFE0446CCB9474613E04046A3
:103CF00004F01EFB8542D2D0404604F037FB8542DB
:103D0000CDD0404604F01EFB8542C8D0404604F0AA
:103D100023FB8542C3D0384608B0BDE8F0810121BD
:103D20002046FEF761F80028F5D104F114030FCB0B
:103D300085E80F004FF480112046FEF755F838B1A2
:103D40002046FFF7F3F80246014628461BF0C3FF62
:103D50002046FFF724FA20B1012229462046FFF72A
:103D60003EFF2A46314630461BF0D1FF0028D2D014
:103D7000204602F073FE0446B6E70027CBE730B5D5
:103D80000C4685B0054600B9FEE702F043FE04F09C
:103D900043FEF8B12368694628460093636801939F
:103DA000A3680293E3680393FFF763FF90B1AB68E6
:103DB00053B193F8333003F00C03082B04D10522E0
:103DC000684611461BF087FF284602F023FE69462D
:103DD00003F017F905B030BD30B5044685B000B921
:103DE000FEE7FFF7A3F8256A6169D4E90623091AFB
:103DF000121A034428440091694601920390204618
:103E00000293FFF7BCFF05B030BD2DE9F043044637
:103E100089B000B9FEE790F82B3003F00C030C2BAF
:103E200003D002F01BFE074608B9002066E094F8B4
:103E30002B6016F0080664D02046FFF7CCFB054641
:103E400094F82B8018F0040800F088802046FFF7D3
:103E5000C7FB06462046FFF7BEFBA84200F0AB803A
:103E60002046FFF7B9FF69462046FFF777FB04A914
:103E70003846FFF7E8FB002204A968461CF005F865
:103E8000804610B9384601F078FCA0690644204607
:103E9000013E2662FFF791F901286A464FF0310191
:103EA0000BBFE0696069401B2D180ABF013005F1A6
:103EB000FF356061204618BFE561FFF701F9224632
:103EC0002A213846FFF7FCF82046FFF785FF94F8D3
:103ED0002A30002204A943F0020304F1140084F8FC
:103EE0002A301BF0D2FFB8F1000F00D110B13846D4
:103EF00001F043FC2046FFF71DF8012009B0BDE8A2
:103F0000F0834FF0FF33012231462046009301F049
:103F100063FE6A46014604902046FFF7C3FB042275
:103F200080463146204601F057FE6A46014604901D
:103F30002046FFF7B7FB052205463146204601F033
:103F40004BFE6A46014604902046FFF7ABFB404516
:103F5000A8BF40468542B8BF054671E74FF0FF3322
:103F6000022241462046009301F036FE6A46014691
:103F700004902046FFF7DCFC06228146414620469D
:103F800001F02AFE6A46014604902046FFF7D0FC65
:103F9000072206464146204601F01EFE6A460146BB
:103FA00004902046FFF7C4FC4845A8BF4846864217
:103FB000B8BF06464EE72046FFF712FBB0427FF43B
:103FC0004FAF32E72DE9F042456888B00446894694
:103FD00016468DB14FF48021FDF706FF6F6900286A
:103FE00054D0B944A86906442846FFF78CF98144A7
:103FF0002846FFF7B8F90644D4E90502B9EB0009F1
:10400000A6EB020601D1002E3DD02046FFF7E4FECC
:1040100069462046FFF7A2FA002D42D004A928469F
:10402000FFF711FB002204A968461BF02EFF07468C
:1040300010B9284601F0A1FB636932464946204683
:104040004B446361A3693344A361E3694B44E36177
:10405000236A334423620023FFF750FD25B1224633
:104060002A212846FFF72CF82046FFF7B5FE55B168
:10407000002204A904F114001BF007FF07B910B1D6
:10408000284601F07AFB08B0BDE8F082284600F02F
:1040900079FC381AAF698144284600F078FC381A58
:1040A000A1E72F46C8E700002DE9F04F87B0824610
:1040B000FFF708FA0446002840F01C81504602F041
:1040C000CDFC082221468346504601F085FD092299
:1040D000009007462146504601F07EFD804681460D
:1040E000BBF1000F07D102463946504607B0BDE884
:1040F000F04FFFF767BF5846FFF783FA064658466A
:10410000FFF790FA07F0C0420546B2F1005F1ED1FA
:1041100027F0C0476FF06042974218D00122214635
:10412000584601F059FD6FF04042904200F09780F0
:10413000B7F1805F4FF06404A2BFC7F17F6707F556
:104140007F2707F6FF77774397FBF4F3009308F098
:10415000C042B2F1005F21D128F0C0416FF060424F
:1041600091421BD06FF0404902220021584601F0D5
:1041700033FD484514BFC1464FF00009642329F0C0
:10418000C049B9F1805FA2BFC9F17F6909F57F29F4
:1041900009F6FF7909FB05F999FBF3F96C22002177
:1041A000504601F019FD6D2200210390044650464F
:1041B00001F012FDCDE901005046FFF70CFA8046F0
:1041C0005046FFF70DFA039B074603F0C040B0F1DD
:1041D000005FDDE9012115D123F0C0436FF060409D
:1041E00083420FD0B3F1805F4FF06400A2BFC3F1F0
:1041F0007F6303F57F2303F6FF7303FB08F393FB51
:10420000F0F31C4601F0C043B3F1005F13D121F07D
:10421000C0406FF0604398420DD0B0F1805F4FF026
:104220006402A2BFC0F17F6000F57F2000F6FF703E
:10423000784390FBF2F2009B914400210A22234430
:1042400050461C4601F0C8FCC0B250B95846FEF7B3
:10425000B4FF012824D1A6EB0806344420E00094E2
:1042600075E7023807281BD801A353F820F000BFD8
:104270009142040857420408B7420408A7420408C0
:10428000BD420408CB420408C5420408DB420408CE
:10429000022396FBF3F698FBF3F8A6EB08084444D8
:1042A0004A46214621E7022396FBF3F698FBF3F8F2
:1042B000A6EB08084444ED1BA944F1E7A6EB080669
:1042C0003444F8E7A6EB08063444022395FBF3F5E3
:1042D00097FBF3F7EF1BB944E2E7022396FBF3F6F3
:1042E00098FBF3F8A6EB080695FBF3F5344497FB2F
:1042F000F3F7E0E707B0BDE8F08F00BF70B5044604
:10430000002502F0E6FB0646B5421FD194F82A309C
:10431000D9070DD56FF30003204684F82A30FFF744
:1043200074FD2046FFF7C0FE15B120461AF0FCF9D7
:1043300094F82A309A0711D56FF3410320460021E3
:1043400084F82A30BDE8704001F03ABAA3681B68CF
:1043500053F825000135FFF7D1FFD5E770BD000008
:1043600038B50D4C94F8643063B9012384F8643097
:1043700002F049FB054695F82A3013F0040202D1F9
:1043800084F8642038BD6FF38203284685F82A300C
:10439000FFF7B4FFEFE700BFC44B01242DE9F04F56
:1043A00085B00E46984607460192DDF8389000B970
:1043B000FEE7FFF7D5FF2EB9384602F04FFB064661
:1043C00000B9FEE7384602F049FB824600B9FEE735
:1043D000FEF799FF83465046FEF7C5FF0290304630
:1043E000FEF791FF05463046FEF7BDFF019B0446F0
:1043F0007BB93046FEF7E1FE01285CD13046FFF77D
:1044000000F901903846FFF7E6F8019B181A0544B9
:1044100051E0019B013B142B00F2778101A252F87D
:1044200023F000BFB744040889450408FD4304088D
:10443000C7450408A9450408DD45040807460408E3
:10444000F345040879440408274604083346040861
:104450005746040867460408714604089546040850
:10446000A5460408B1460408D5460408ED460408EC
:10447000F7460408014704083046FFF7C2F80190E8
:104480003846FFF7A8F80223019A039390FBF3F054
:1044900092FBF3F2121A30461544FFF7C3F801906D
:1044A0003846FFF79DF8039B019A90FBF3F092FBCF
:1044B000F3F2121A144408F0C043B3F1005F18D1AC
:1044C00028F0C0436FF06042934212D0304601930F
:1044D000FFF781F8019B4FF06408B3F1805FA2BF42
:1044E000C3F17F6303F57F2303F6FF73434393FB1D
:1044F000F8F809F0C043B3F1005F18D129F0C043C8
:104500006FF06042934212D030460193FFF768F893
:10451000019B4FF06409B3F1805FA2BFC3F17F63D9
:1045200003F57F2303F6FF73434393FBF9F95046EA
:10453000FEF743FE01287069DAF8143080445046D3
:10454000A8EB030840F0E48000F0D4FA8044B0699E
:104550008144DAF81800A8EB0B0BA9EB00095046D0
:1045600000F01AFA029B48445D4400220121C01A5F
:104570000444384602F0BFF929462246384605B0C1
:10458000BDE8F04FFEF751BF3046FFF73AF8019013
:104590003846FFF720F80222019B90FBF2F093FBD4
:1045A000F2F31B1A1D4486E73046FFF72AF8019004
:1045B0003846FFF710F80222019B90FBF2F093FBC4
:1045C000F2F31B1A1D443046FFF72CF801903846D1
:1045D000FFF706F8019B181A04446CE73046FFF712
:1045E00010F801903846FEF7F6FF019B181A0544B3
:1045F000E9E73046FFF705F801903846FEF7EBFF94
:10460000019B181A05443046FFF70CF80190384614
:10461000FEF7E6FF0222019B90FBF2F093FBF2F320
:104620001B1A1C4447E73846FEF7DAFF44420025D0
:1046300041E73046FEF7CFFF05463846FEF7CBFF91
:10464000022395FBF3F590FBF3F02D1A3846FEF7A5
:10465000C7FF44422FE73046FEF7BDFF0546384608
:10466000FEF7B9FFF1E73046FEF7BAFF0446DEE792
:104670003046FEF7B0FF05463846FEF7ACFF022392
:1046800095FBF3F590FBF3F02D1A3046FEF7A8FFEB
:10469000044610E73046FEF79EFF05463846FEF713
:1046A0009AFFF1E73846FEF796FF4542002402E7FD
:1046B0003846FEF790FF45423046FEF791FF04462C
:1046C0003846FEF78DFF022394FBF3F490FBF3F0E2
:1046D000241AF0E63846FEF77EFF45423046FEF7E4
:1046E0007FFF04463846FEF77BFFF1E73046FEF7D2
:1046F00072FF0546DAE73046FEF76DFF0546DBE759
:104700003046FEF768FF0546E8E700242546D2E676
:1047100000F092F91AE700BF30B5044685B000B941
:10472000FEE7FEF703FC6169256A091AD4E906234E
:1047300000916946121A03442844019203902046CE
:104740000293FFF796FA05B030BD38B50C46054622
:1047500000B9FEE7FDF70BFEAB689C6238BD42690D
:104760000B460A6082694A60C2698A60026ACA604E
:10477000826822B1926A184611461BF0ACBA7047A3
:1047800070B50E4686B002210546FDF72DFB18B91F
:104790000024204606B070BD02A92846FFF7DFFFBF
:1047A0000022314602A81BF0EEFA04460028EFD0A2
:1047B0004FF480312846FDF717FB0028E9D001238C
:1047C0006A461621284600968DF80430FEF778FCDC
:1047D0009DF80440DDE7002309211A46FEF7B0BE2C
:1047E00007B5272201F0F8F9C0B203B05DF804FB69
:1047F00090F85C301B0704D500220E210068FEF7FC
:104800005FBC704773B505461022002101F0E4F942
:10481000302204460021284601F0DEF93422064603
:104820000021284601F0D8F9830748BFA419204683
:1048300002B070BD73B505461122002101F0CCF91C
:10484000302204460021284601F0C6F934220646EB
:104850000021284601F0C0F9C30748BFA41920462B
:1048600002B070BD73B505461222002101F0B4F903
:10487000302204460021284601F0AEF934220646D3
:104880000021284601F0A8F9430748BFA419204693
:1048900002B070BD73B505461322002101F09CF9EA
:1048A000302204460021284601F096F934220646BB
:1048B0000021284601F090F9030748BFA4192046BB
:1048C00002B070BD38B50D46044600B9FEE7FDF7ED
:1048D0004EFDA26892F8323003F00301A94208D0DD
:1048E00065F30103204682F83230BDE83840FFF717
:1048F00073BA38BD38B505460C46FDF738FDAA68D1
:10490000538EC3F38311A1421CBF64F389135386F2
:1049100038BD38B505460C46FDF729FDAB6893F860
:10492000322064F3830283F8322038BD38B505465F
:104930000C46FDF71CFDAB6893F8322064F30512BA
:1049400083F8322038BD836823B193F8320000F039
:10495000030070470320704783681BB1588EC0F373
:10496000831070470F207047806818B190F83200AC
:10497000C0F381007047806818B190F83200C0F32E
:1049800001107047806808B1006A40427047806833
:1049900008B1406A40427047FFF7F9BF2DE9F3477D
:1049A000044600B9FEE702F094F800268146204D47
:1049B000DFF880A04E4523D12046FFF723FF0746AE
:1049C0002046FFF737FF1A4B80469D421CBF226AE4
:1049D000121A204618BFAD1AFEF79AFF0646204667
:1049E000FEF7FEFDC31B2046A3EB0803F31AFFF7F7
:1049F000CEFF181AA842B8BF284602B0BDE8F0871B
:104A0000A36851461B6853F826804046FDF741FADB
:104A1000014650B9D8F820701922404601F0DCF860
:104A200007440190BD42B8BF3D460136C2E700BF12
:104A3000010000E0010004002DE9F04F054685B0BB
:104A400000B9FEE70021FFF7CBFE012806D0A868D9
:104A500008B1006A404205B0BDE8F08F28466FF00B
:104A60006046FFF717FF074628460024FFF7FAFEC7
:104A700080462846DFF878B002F02BF88246A2453F
:104A80001AD16FF060439E4217BF6869174E4044C9
:104A9000861B2846FEF7F6FD04462846FEF79BFDDA
:104AA000C01BA0EB0800241A2846FFF76BFF204428
:104AB000B042B8BF3046CEE7AB6859461B6853F8E2
:104AC000243018460193FDF7E4F9014660B9019BD3
:104AD0001A22D3F81490184601F07EF80390A9EB3F
:104AE00000094E45A8BF4E460134C8E7010000E06A
:104AF000010004002DE9F347054600B9FEE7002157
:104B0000FFF76EFE012805D1A86800B1006A02B067
:104B1000BDE8F0872846002401F0DBFF1E4E8146E9
:104B2000DFF878A0A14520D12846FFF7B3FE07465D
:104B30002846FFF797FE184B804628469E421EBF28
:104B4000EA69D21BB61AFEF79DFD04462846FEF719
:104B500042FDC01BA0EB0800241A2846FFF712FFF5
:104B6000201AB042B8BF3046D1E7AB6851461B6847
:104B700053F824804046FDF78CF9014650B9D8F827
:104B80001C701B22404601F027F807440190BE42EA
:104B9000B8BF3E460134C5E7010000E00100040053
:104BA00038B50D460C4904461AF056FE58B1C06A95
:104BB00040422860204609491AF04EFE38B1C06ACA
:104BC0004042686038BD2046FFF7DCFEF1E7204632
:104BD000FFF7DDFEF5E700BF414C04082B4C04084D
:104BE00070B5044616460D4601B9E2B12046FDF700
:104BF000BEFBA368294620461A6A2A441A625A6AEA
:104C000032445A6201233246FEF778FF00220F2118
:104C10002046FEF755FA0128054602D12046FFF747
:104C2000DBF8284670BD0125FBE708B50346FFF712
:104C3000AEFE421800211846BDE80840FFF7D0BF7D
:104C400008B50346FFF79EFE002201441846BDE862
:104C50000840FFF7C5BF0000F0B5044699B01546FF
:104C60000E4679BB82B919B0F0BD01F0D3FE0746FC
:104C700068461AF0B3FD214668461AF046FE4249DE
:104C800068461AF057FE56E0002BEED13F49204609
:104C90001AF0BEFD3E4920461AF0BAFD00220C2152
:104CA0002046FEF70DFA0128DDD12A46314620467E
:104CB000FFF796FF0128D6D100220E212046FEF7ED
:104CC000FFF9D0E7002BE1D001F0A4FE07466846CB
:104CD0001AF084FD214668461AF017FE2A496846F4
:104CE0001AF028FE384603F03BFA4FF4C872C82188
:104CF00040101AF0C9FD014668461AF00AFE204627
:104D0000FFF740FE321A414268461AF007FE20497A
:104D100068461AF0FCFD1F4968461AF005FE6A460F
:104D20000C212046FEF7CCF901289CD168461AF0E8
:104D30004FFF002D97D0384603F024FA4FF4C87285
:104D4000C82140101AF0A0FD014668461AF0E1FDA6
:104D50002046FFF71CFE2A1A414268461AF0DEFD83
:104D60000A4968461AF0D3FD0A4968461AF0DCFD84
:104D70006A460C212046FEF7A3F901287FF473AFA1
:104D800068461AF025FF6EE7F14704082B4C04082B
:104D9000414C0408C7F805082DE9F047054691463F
:104DA0001F460C4609B9002A4ED02846FFF7D8FA0C
:104DB0002846FFF7E7FD00210646A4EB000A284637
:104DC000FFF70EFD01282DD0BAF1000F1BDB0024E8
:104DD0002846FFF7DCFDB9EB0009804632D52846AE
:104DE000FFF7DCFD404420EAE07042424A45B8BF8C
:104DF0004A463119424400D132B33B462846BDE809
:104E0000F047FFF729BF2846FFF716FE80462846E1
:104E1000FFF770FE404420EAE07044425445B8BFBA
:104E20005446D5E7BAF1000FD1DD2846FFF704FE5E
:104E300004462846FFF75EFE2418C8D45445A8BF90
:104E40005446C5E70022D4E7BDE8F08770B50446B4
:104E500016460D4606491AF0DBFC2046FFF792FD88
:104E60003346411B00222046BDE87040FFF794BF47
:104E7000414C040870B5044616460D4606491AF022
:104E8000C7FC2046FFF783FD3346421B0021204626
:104E9000BDE87040FFF780BF2B4C040870B5054695
:104EA00016461C461A46FFF7D1FF314622462846D1
:104EB000BDE87040FFF7DEBF2DE9F04F87B0074631
:104EC00008468B469046039301F0C8FD1021064624
:104ED000FCF78AFF002800F008813046FFF73CFD10
:104EE00001903046FFF747FD8146002800F0AC8076
:104EF0000BF1140A3046FFF785FC04463046FFF7F5
:104F000099FCB5690290316A2544DAF80400029BE5
:104F10002D1ADAF80C00C91AD8F80420091AAD1AAB
:104F20003046521A0592FEF75BFB002D0490059A5D
:104F3000C0F28C80002A06DA2DB13046FFF727FD3B
:104F4000401B002800DA0025B9F1020F00F08C8028
:104F5000B9F1030F00F08E80B9F1010F04D1B569EA
:104F6000DAF8040025442D1A3046FFF7FDFC82468E
:104F700008B10BF114073046FFF774FC8146304648
:104F8000FFF788FC74693B6883464C44D8F80000FE
:104F9000BA68E41AF369A3EB0B03241AA3EB020328
:104FA000A0EB03037BD4002B06DA2CB13046FFF7CD
:104FB00043FD001B002800DA00243046FEF70BFBFF
:104FC000BAF1020F77D0BAF1030F79D0BAF1010F1D
:104FD00003D1746938684C44241A454930461AF0A4
:104FE00017FC444930461AF013FC019BD807019B7B
:104FF000304658BF24EAE4749907019B58BF04EA7D
:10500000E4745A07019B039A214658BF25EAE575C7
:105010001B07D8F8003058BF05EAE575002A14BF11
:1050200022460022134414BF2A460022C8F800304A
:10503000D8F8043013442A46C8F80430039B07B05C
:10504000BDE8F04FFFF708BEBA4653E7002A0592C5
:105050007FF779AF3046FFF7A1FC059A801A002848
:10506000FFF671AF55426FE7356A029BDAF80C0024
:10507000ED1A78E7049B4FF00209B26950461D1BF8
:10508000029B1444ED1A1BF0C0F995FBF9F52C4472
:1050900090FBF9F5DAF804000544651B64E7002B82
:1050A000029389DD3046FFF725FD029BC01A0028D8
:1050B00082DB5C4281E7F469B868A4EB0B048BE700
:1050C000A0EB09044FF0020A73693846A4EB0B0405
:1050D00099441BF095F994FBFAF4A14490FBFAF47F
:1050E00038680444A9EB040477E707B0BDE8F08F03
:1050F0002B4C0408414C040873B504460E46FFF7D8
:105100002FF900232046CDE9003301F0A7FC21460A
:10511000054614340DB902B070BD33466A462046C8
:10512000FFF7CAFE284601F099FC29460546F1E73B
:1051300010B5044604491AF06BFB04492046BDE84B
:1051400010401AF065BB00BF2B4C0408414C04080A
:105150002DE9F04F4FF0FF3795B00D46164600226F
:1051600004463B462846114600971AF09AFD002255
:105170003B463046114600971AF093FD1021204619
:10518000FCF732FE0390002845D02046FFF7DBFBFA
:10519000074600283FD0002016F03EF8022F824636
:1051A00036D02046FFF7F3FB0F902046FFF7F6FBC3
:1051B00081462046FFF740FC10902046FFF79AFCFE
:1051C0000D902046FFF7C8FB10F00C03834634D047
:1051D000012F2FD0032F21D10F9B002B2ADCB9F1F7
:1051E000000FD4BF4FF000084FF001081BF0030F71
:1051F00026D1B8F1000F0ED0002303932BE05046C8
:1052000016F04DF88442CCD0504616F005F8824690
:10521000BAF1000FF3D115B0BDE8F08F022F0CD119
:10522000504616F02FF8A0F10C03D3F1000848EB1C
:105230000308DBE7DDF80C80D8E74FF00008D5E77E
:10524000012F08D0032F40F0C180109B002B02DCFF
:105250000D9B002BCDDD4FF480312046FFF7C0FAC7
:1052600010220A904FF48031204600F0B5FC112244
:105270004FF480318346204600F0AEFC12220B90A2
:105280004FF48031204600F0A7FC132205904FF424
:105290008031204600F0A0FC012206904FF48031BE
:1052A000204600F099FC03224FF4803109902046FB
:1052B00000F092FC0C9008902046FEF791F982468F
:1052C0002046FEF788F9B8F1000F099B4FF01D0248
:1052D00008BF002307904FF4803120460493039BBE
:1052E000002B099B08BF00230E9300F075FCC0B291
:1052F000022875D9B8F1000F7CD1039B002B8AD00E
:10530000109B079A13441E460D9BF61883D0236A00
:105310004FF00A080B9A9B1A099AEB609B1A059AA0
:1053200001336B6063692B60E369AB60079B9F1A75
:10533000069BFF1A049BFF1A0C9B002BDEBF079BEA
:1053400007FB03F090FBF6F34FF00000D8BF089383
:1053500002F03AFF08FB00F0EF2840F33381002011
:1053600002F032FF08FB00F04FF0A008503090FB35
:10537000F8F0089B834213DC4FF00A08002002F08B
:1053800023FF08FB00F0EF2840F31E81002002F00D
:105390001BFF08FB00F0A023503090FBF3F30893B1
:1053A000079BF21A6369002A00F31781059A1A44D1
:1053B0000A9B012B1746E36940F00881049A1744C1
:1053C000069A013F9B1A2F60AB6024E7022F7FF4FF
:1053D00010AF504615F056FF03287FF40AAF3AE7A6
:1053E00032224FF48031204600F0F6FBC0B2022892
:1053F00080D810E70F9B534413EB09083FF47DAFAF
:10540000A3697360236AF3600A9B012B4AD1636925
:10541000059A1344099A33601344013BB3600B9B14
:10542000AAEB0B070020FF1A0E9BFB1A0F930C9B95
:10543000002BD7BF0F9B0C9F03FB0AF393FBF8F7DE
:1054400002F0C2FE0A225043EF2834DD0020119200
:1054500002F0BAFE119A5043A022503090FBF2F0B5
:1054600087420FDC0A27002002F0AEFE7843EF28C7
:1054700023DD002002F0A8FE07FB00F3A02050333C
:1054800093FBF0F7A8EB0A08A269B8F1000F16DC4D
:105490005A44236A72600B9A9B1A0E9A9B1A013B1C
:1054A000F3602AE7E369069A9B1A099AB3609B1A8C
:1054B00001333360B3E70120D2E70127E2E7BA45C1
:1054C0000F9BA8BFBA46A3EB0A0707FB09F999FB94
:1054D000F8F9A7EB090717445F44BA4477600AF16B
:1054E000FF33F360A3699B445F452ADA0A27C6F8B5
:1054F00004B0002002F068FE7843EF285ADD002057
:1055000002F062FE7843A027503090FBF7F083440E
:10551000F3689B4515DD4FF00A080020776802F01C
:1055200053FE08FB00F0EF2846DD002002F04CFEA1
:1055300008FB00F04FF0A008503090FBF8F0074453
:10554000F7600E9B276AFF1A0B9BFF1AF368BB429A
:105550007FF7D3AE4FF00A08F760002002F034FE68
:1055600008FB00F0EF2829DD002002F02DFE08FBEB
:1055700000F04FF0A008503090FBF8F03F1A73682D
:105580009F42BFF6BAAE4FF00A080020F76802F05B
:105590001BFE08FB00F0EF2812DD002002F014FED5
:1055A00008FB00F04FF0A008503090FBF8F03F1AD5
:1055B0007760A2E60120AAE70120C0E70120DDE72D
:1055C0000120F4E70120D4E60123E8E62A60069AE8
:1055D0009B1A049A9B1A013BF6E6DDE90716B142D5
:1055E000A8BF31460D9E7F1A08467E4396FBF2F611
:1055F000BF1B1F44059B1F440A9B012B68D1049BC2
:105600001F44059B2F603844666901383344A86005
:105610001E46049B1E44B74225DA0A272E6000204E
:1056200002F0D2FD7843EF284CDD002002F0CCFDE3
:105630004743A020503797FBF0F00644AB689E42EA
:1056400011DD0A2600202F6802F0BEFD7043EF280E
:105650003ADD002002F0B8FD7043A026503090FBE8
:10566000F6F03844A860069BE669F61AAB68B342C8
:105670007FF7D1AD0A24AE60002002F0A5FD6043A3
:10568000EF2823DD002002F09FFD6043A02450306E
:1056900090FBF4F0301A2B689842BFF6BCAD0A2498
:1056A0000020AE6802F090FD6043EF2863DD00202B
:1056B00002F08AFD6043A024503090FBF4F0301AD1
:1056C0002860A8E50A98B8E70120CAE70120E1E7C9
:1056D00038442F60059B0138A86060690344BB42D1
:1056E000984625DD0A262B60002002F06DFD7043F0
:1056F000EF283ADD002002F067FD7043A02650300D
:1057000090FBF6F04044AB68984211DD0A26002079
:105710002F6802F059FD7043EF2828DD002002F0C9
:1057200053FD7043A026503090FBF6F03844A8603B
:10573000049BE469E41A069BE41AAB68A3427FF772
:105740006AAD0A26AC60002002F03EFD7043EF28EF
:105750000FDD002002F038FD7043A026503090FB92
:10576000F6F0241A2B689C4297E70120CAE7012033
:10577000DCE70120F5E70120A1E710B588B0044679
:1057800004AA6946FFF7E4FC68461AF09AFA80B169
:1057900068461AF096FA18B169462046FEF7EFFA05
:1057A00004A81AF08EFA48B104A92046FEF7E7FAD9
:1057B00004E004A81AF085FA0028E9D108B010BD69
:1057C0002DE9F04104468846FFF7D5F8054698B91B
:1057D0002046FFF7DCF806462046FFF7DFF80028F2
:1057E0000ADA002E08DD4242434629462046B242EC
:1057F000A8BF3246FFF730FA2046FFF7B5F8074654
:1058000020BB2046FFF718F906462046FFF772F93D
:10581000394605462046FEF7E3FF01280ED0002D4D
:1058200014DA002E12DD694243463A46B142A8BF5F
:1058300031462046BDE8F041FFF70EBA002E05DAEA
:10584000002D03DD43463A463146F2E7BDE8F081DC
:105850002DE9F74F814628480E4617469A460025FF
:105860001BF029FDDFF8908004461CB9284603B0E0
:10587000BDE8F08F5445F9D0214640461BF022FD8B
:10588000226883464A4535D1A368B34202D0B6F5B3
:10589000702F2FD12379BB4201D0FF2F2AD10025B1
:1058A00017E0E800D2F80CC00CEB0003D9798907A7
:1058B0000ED5B6F5702F04D05B68C3F31703B3425F
:1058C00006D121795CF8000001921CF0D9F8019A08
:1058D0000135538DC3F30513AB42E2D800212046B6
:1058E00019F096FF0125214640461BF0A2FC2046F8
:1058F0001EF078F85C46B8E7E04B0124F8B507469F
:10590000002401F0E6F80646B44200D1F8BDBB68B9
:105910001B6853F8245001342846FEF75DFA002234
:1059200032212846FDF7CCFB2846FEF755FA2846DB
:10593000FFF7E4FFE8E770B5047A0368FF2C0BD1AA
:1059400018781C4600B970BD814203F10803F7D1F5
:10595000636813600120F6E7002003EB84058442AE
:1059600001D80020EFE72E5C8E4202D153F82030A0
:10597000EFE70130F3E72DE9F04F9B46930891469E
:1059800090F82A401F2B4FF0010285B0074628BF30
:105990001F23884601F47F0A04F0080402FA03F387
:1059A000002601937B8DC3F30513B34205D84FF056
:1059B000FF35681C18BF01204CE0F300FA681A4458
:1059C000D1798D0730D41FFA88F84FF0FF356FEA90
:1059D000080202927A8DC2F30512B242E9D9F9683F
:1059E000019CC858CA1841680C421AD0D17949079D
:1059F00017D45468C4F3170404F47F02924510D1FD
:105A0000A4B2029A14420CD1AC420ADD5A4649466D
:105A10000393FFF790FF0128039B02D1A04518D004
:105A2000254601360833D5E70CB10136BAE74807F9
:105A3000FBD4536803F47F035345F6D11068019AF1
:105A400043681A42F1D05A464946FFF774FF0128CD
:105A5000EBD1012005B0BDE8F08F0000F8B5054698
:105A60000F4614461E46FFF786FF012801D101208C
:105A70000CE08A2C07F47F0709D8154B1B5D03F057
:105A80000103A3B107B96D6845B90020F8BD114BFA
:105A90005B6B63B1234413F88B3CF0E7334622463B
:105AA000298D2846FFF767FF0128ECD1DFE7002F9B
:105AB000EBD1631E012BE8D82B68002BE5D0012C1D
:105AC0000CBF9A69DA690AB13260D0E71B68F4E763
:105AD000CA880908C44B012470B5037A05460468D6
